:020000040800F2
:1000000000000320BD050008E5040008E70400081F
:10001000E9040008EB040008ED04000800000000FB
:10002000000000000000000000000000EF040008D5
:10003000F104000800000000F3040008F5040008C3
:100040000D0600080D0600080D0600080D06000844
:100050000D0600080D0600080D0600080D06000834
:100060000D0600080D0600080D0600080D06000824
:100070000D0600080D0600080D0600080D06000814
:100080000D0600080D0600080D0600080D06000804
:100090000D0600080D0600080D0600080D060008F4
:1000A0000D0600080D0600080D0600080D060008E4
:1000B0000D0600080D0600080D0600080D060008D4
:1000C0000D0600080D0600080D0600080D060008C4
:1000D0000D0600080D0600080D0600080D060008B4
:1000E0000D0600080D0600080D0600080D060008A4
:1000F0000D0600080D0600080D0600080D06000894
:100100000D0600080D0600080D0600080D06000883
:100110000D0600080D0600080D0600080D06000873
:100120000D0600080D0600080D0600080D06000863
:100130000D0600080D0600080D0600080D06000853
:100140000D0600080D0600080D0600080D06000843
:100150000D0600080D0600080D0600080D06000833
:100160000D0600080D0600080D0600080D06000823
:100170000D0600080D0600080D060008000000002E
:100180000D0600080D0600080D0600080D06000803
:100190000D0600080D0600080D0600080D060008F3
:0C01A0000D0600080D0600080D06000802
:1001B00053B94AB9002908BF00281CBF4FF0FF31CE
:1001C0004FF0FF3000F00CB8ADF1080C6DE904CE33
:1001D00001F054FDDDF804E0DDE9022304B07047CE
:1001E000704700BF00000000000000000000000099
:1001F00001F0FF01102A2BDB10F0070F08D010F8D8
:10020000013B013A8B422DD010F0070F42B3F6D1DB
:10021000F0B441EA012141EA014122F007047FF0F4
:1002200000070023F0E80256083C85EA010586EA4B
:10023000010685FA47F5A3FA87F586FA47F6A5FA87
:1002400087F68EB9EED1F0BC01F0FF0102F0070293
:1002500032B110F8013B013A83EA010313B1F8D13E
:100260000020704701387047002D06BF354603381F
:10027000073815F0010F07D1013015F4807F02BF58
:10028000013015F4C03F0130F0BC0138704700BFA9
:1002900010B5054C237833B9044B13B10448AFF3C0
:1002A00000800123237010BD6800002000000000C2
:1002B000842E000808B5034B1BB103490348AFF374
:1002C000008008BD000000006C000020842E0008A3
:1002D00030B595B0102200210AA802F055F814227A
:1002E000002103A802F050F8224B002101911A6C62
:1002F00042F080521A641B6C03F080530193019BFF
:100300001D4B02911A6842F440421A601B6803F4C4
:1003100040430293029B01214FF480330224CDE934
:1003200008134FF48003CDE90E430F25D823CDE900
:10033000105308A804231294139300F05BFE08B135
:1003400072B6FEE701F0A4FB08B172B6FEE70590B5
:100350004FF4A0524FF48053052103A8CDE9035474
:10036000CDE9062301F022F808B172B6FEE715B018
:1003700030BD00BF003802400070004008B501F0F9
:10038000E5FBFFF7A5FF00F007F800F05BF800F0D1
:100390003FF9FEE772B6FEE710B588B014220021DF
:1003A00003A801F0F1FF00241C4B00941A6B1C48B9
:1003B00042F004021A631A6B02F004020092009ADF
:1003C00001941A6B42F080021A631A6B02F08002E9
:1003D0000192019A02941A6B42F001021A631B6B9C
:1003E00003F00103029301224FF40051029B01F03C
:1003F00049FB4FF40052012303A90948CDE9032327
:10040000CDE9054401F054FA08230548059403A9F1
:10041000CDE9033401F04CFA08B010BD00380240B9
:100420000008024007B54FF0FF330190012201A9F7
:10043000034800F03AFD019803B05DF804FB00BFEB
:10044000840000200B4908B50B4B0B604FF4612270
:100450000023C1E9012308460C22C1E90333C1E9A5
:100460000523CB6100F0F2FC18B1BDE80840FFF7AE
:1004700091BF08BD84000020004C004010B5044628
:1004800088B01422002103A801F07EFF2268134BDC
:100490009A4221D103F5F633002101911A6C1048DC
:1004A00042F400221A641A6C02F400220192019AAA
:1004B00002911A6B42F001021A631B6B03F00103F5
:1004C0000293029B02220323CDE90332069303A980
:1004D0000823079301F0ECF908B010BD004C004070
:1004E00000000240FEE7FEE7FEE7FEE7FEE770479A
:1004F0007047704701F044BB82B00C4B0021009163
:100500005A6C42F480425A645A6C02F4804200925F
:10051000009A01911A6C42F080521A641B6C03F02D
:1005200080530193019B02B0704700BF0038024026
:100530000A4A0346106810B508B90948106009490D
:10054000094C0344091B8B4206D901F06BFF0C23B5
:1005500003604FF0FF3010BD1360FCE7CC000020BB
:1005600098060020000003200004000070B50D462E
:1005700014460E46731B9C4201DC204670BDAFF34F
:10058000008006F8010BF5E770B50D4614460E46DF
:10059000731B9C4201DC204670BD16F8010BFFF76F
:1005A00041FFF5E74FF0FF3070474FF400534B60C9
:1005B000002070470120704700207047DFF834D0DA
:1005C00000F07CFB0C480D490D4A002302E0D45892
:1005D000C4500433C4188C42F9D30A4A0A4C00238D
:1005E00001E013600432A242FBD301F021FFFFF7C8
:1005F000C5FE7047000003200000002068000020B6
:10060000E03200086800002094060020FEE70000A9
:1006100008B500F039FB20B100F022FB00F0ACFA85
:10062000FEE71B48082101F027FA10B900F0A4FAF0
:10063000F6E7184B1B6803F16042B2F5403F06D362
:1006400003F15F4303F57503B3F5803FE8D272B65B
:100650004FF0E022002313614FF0FF3153619361AB
:100660009A0002F1604202F561420133082BC2F8A0
:100670008010C2F88011F3D1064A074953680B6015
:10068000064912680B6082F308889847C8E700BFE4
:100690000008024000800008D0000020D4000020A4
:1006A00041F4807141F2210349004000CA0548BF6E
:1006B0000130C20348BF5840CA03F5D580B2704725
:1006C00038B5044645180020AC4280B207D300215B
:1006D000FFF7E6FFBDE838400021FFF7E1BF14F85F
:1006E000011BFFF7DDFFEFE72DE9F04FDFF8449244
:1006F0008A4BDFF844A289B08046C9F800304FF039
:10070000000B0026F5E003F0DF02412A18D0182B79
:1007100040F0BA8082484FF47A7301220DF10B0148
:1007200000F011FC044668B99DF80B30182B40F01E
:10073000AB800225AAE08025A8E04FF48065A5E003
:100740000224A3E00124A1E06CB1022C00F0DB80C4
:100750005F44052F40F2DC80182000F0ABF9182030
:1007600000F0A8F977E006201DB100F0A3F90224FB
:100770004CE000F09FF9C4E7002E57D19AF80440EE
:10078000002C4FD0674A3146144613F8010B08B1CC
:1007900040293FD10022625404A9985C202801D04E
:1007A000102A3BD102F120030DEB030203A9002321
:1007B00004A802F8103C00F01DF9D8F800205A4BAC
:1007C0009A4213D918238DF80A3001224FF480136E
:1007D0000DF10A01524800F068FB51484FF48013B4
:1007E00001220DF10A0100F060FB05264B4800F0E4
:1007F000AFF8039BC8F80030062000F05BF94320F7
:1008000000F058F9002E00F085800524204609B03C
:10081000BDE8F08F02F8010B0131B6E701F8010BDA
:100820000132BAE7062000F045F9EFE7D9F80000F9
:10083000AA08194600F0A0F8074600285BD1D9F8AD
:10084000003006202B44C9F8003000F033F901369F
:10085000F6B24FF0010B32484FF47A7301220DF1DA
:100860000B0100F070FB0446054600287FF46DAFD5
:100870009DF80B30042B08D03FF645AF012B3FF419
:100880005AAF022B3FF459AF012400259DF80B30DD
:100890008AF800307F2D7FF657AF244920484FF467
:1008A0007A732A1D00F04FFB044600287FF44DAFF9
:1008B0009AF803309AF802200092DB43DBB29A42A6
:1008C0007FF446AF1A4B5A1C595D525D184602EB35
:1008D000012229460192FFF7F3FE019A144B82424E
:1008E0007FF436AF009AB2423FF446AF152000F0D5
:1008F000E1F80027AFE7182000F0DCF8182000F03E
:10090000D9F8042482E7182000F0D4F818202CE746
:10091000432025E70126B346EBE700BF008000082F
:1009200084000020E404002001801F00DA00002081
:10093000DC000020E0040020D800002008B500F012
:100940006FFE024B7322DA6008BD00BF003C02401C
:100950007FB5FFF7F3FF00230193162202236946B8
:1009600001A8CDE90332059300F04EFF003818BF0F
:10097000012007B05DF804FB2DE9F041DFF83C8071
:10098000044617460D1F0026BE4201D0444501D93A
:1009900000200FE06A6800232146022000F084FE58
:1009A00038B9226855F8043F9A4205D1043401361B
:1009B000EAE70320BDE8F0810220FBE7FBFF1F0808
:1009C000F0B50A220A4C00231746B1FBF4F606F1F3
:1009D0003005EDB2302D04FB1611C554B4FBF7F40D
:1009E00000D11BB10133013AEFD1F0BD0023FAE78A
:1009F00000CA9A3B70B50378302B044604D1437883
:100A000003F0DF03582B15D000231A460A26A05CFA
:100A100048BB0B60012001320B2A20D00028F6D001
:100A20001FE0A3F14105052D4FEA021294BF373BA9
:100A3000573B0DE000220220235C6BB123F0200520
:100A4000413D052DEDD9303BDDB2092D04D8120111
:100A500001300B281A44EFD1235C0BB1002070BD8C
:100A60000A600120FBE700F0DF054B2D03D1002ACF
:100A7000F4D09B02CDE74D2D03D1002AEED01B050B
:100A8000C7E7A0F13005092DE8D806FB0303303B8A
:100A90000020C0E7014600239AB2885C1A46013361
:100AA0000028F9D10248642392B200F0FEB900BFD9
:100AB0008400002007B50A4B8DF8070093F8412009
:100AC0000748A02A04BF202283F841200DF1070126
:100AD0006423012200F0E9F903B05DF804FB00BFD4
:100AE000840000201FB5002319480093CDE901338D
:100AF000CDF80B30FFF7CEFF6846FFF7F5FD052870
:100B000023D8DFE800F0032220221E1C1148FFF743
:100B1000C1FF1148FFF7BEFF009901A8FFF750FF82
:100B20000E48FFF7B7FF01A8FFF7B4FF0C48FFF727
:100B3000B1FF0C48FFF7AEFF05B05DF804FB0A48B3
:100B4000F8E70A48F6E70A48F4E70A48F2E700BF80
:100B50009C2E0008D72E0008E40400202A2F00084D
:100B6000342F00083D2F0008522F00088F2F000857
:100B7000A92F0008BF2F000808B51848FFF78AFF03
:100B80001748FFF787FF1748FFF784FF1648FFF75E
:100B900081FF1448FFF77EFF1048FFF77BFF1348E3
:100BA000FFF778FF1248FFF775FF1248FFF772FF53
:100BB000FFF798FF1048FFF76DFF4FF47A7000F0D1
:100BC000F1FFBFF34F8F0D490D4BCA6802F4E0628D
:100BD0001343CB60BFF34F8F00BFFDE7DF2F00084B
:100BE0002830000870300008B93000085D31000876
:100BF00001310008363100086231000800ED00E0E4
:100C00000400FA0530B587B000F00AFD044620B1B3
:100C10000146104801F072FA13E002230190059397
:100C200017250123694601A8CDE9035300F0ECFD27
:100C3000044648B10146009A074801F05FFA00F007
:100C400001FD204607B030BD00F0FCFC03482946FA
:100C5000E0E700BF8A310008A4310008CF31000866
:100C600008B5064801F0B2FAFFF7CCFF20B10448FE
:100C7000BDE8084001F0AABA0248F9E7F6310008D9
:100C8000133200083432000808B5084B084A1968C6
:100C9000914208D15A68074B9A4204D1064801F0A4
:100CA00095FA012008BD0020FCE700BF00FF1F08E7
:100CB0007856341200EFCDAB5A320008034AD2F80E
:100CC000883043F47003C2F88830704700ED00E0CC
:100CD000026802F10C0353E8003F23F490730C32D6
:100CE00042E8003102680029F2D102F1140353E80E
:100CF000003F23F0010302F1140C4CE800310029FD
:100D0000F3D1036B012B0BD102F10C0353E8003F2D
:100D100023F0100302F10C0C4CE800310029F3D150
:100D2000202380F842300023036370470268C168C3
:100D300038B5136923F440530B43136105468368A8
:100D40000069D168034368690343E86921F41641E7
:100D500021F00C0103430B43D3605369A96923F4C9
:100D600040730B4353611F4B9A4203D003F58063DA
:100D70009A4224D100F0C4FBEA691921B2F5004F70
:100D8000D5E90043A0FB01011CD1DA184FF00005A2
:100D900045EB0503FFF70CFA6422B0FBF2F102FB0E
:100DA0001103DB003233B3FBF2F303F007025B0005
:100DB00002EB011203F4F8731344A36038BD00F092
:100DC0008FFBD9E79A009B0FFFF7F2F96422B0FB83
:100DD000F2F102FB11031B013233B3FBF2F303EB1D
:100DE0000113EAE700100140F7B505460C46174627
:100DF0001E462A68136834EA030301D1002021E06B
:100E0000701CF7D000F0C8FEC01B86421CD3DEB1B8
:100E10002B68DA685107ECD5802CEAD0402CE8D05A
:100E20001A681207E5D5002401941A6801925B68DC
:100E300001932846019BFFF74BFF08236B6485F85D
:100E40004040012003B0F0BD0320FBE710B504468D
:100E500048B390F8413003F0FF021BB980F84020FE
:100E6000FFF70CFB2268242384F84130D36823F475
:100E70000053D3602046FFF759FF23681A6922F414
:100E800090421A615A6922F02A025A61DA6842F4E1
:100E90000052DA6000202023606484F8413084F836
:100EA0004230606310BD0120FCE72DE9F84398460D
:100EB00090F84130202B04460E4617463FD10029BA
:100EC0003FD0002A3DD021230025456480F84130E1
:100ED00000F062FEA368A784B3F5805F8146E784D3
:100EE00003D123690BB935461E46E38C9BB253B937
:100EF00043464A4640212046FFF776FF202350B95B
:100F000084F841300AE043464A4680212046FFF7F4
:100F10006BFF28B1202384F841300320BDE8F8831B
:100F200022684EB935F8023BC3F308035360E18CE5
:100F3000013989B2E184D8E716F8013BF6E70220CF
:100F4000ECE70120EAE72DE9F8431F4690F842302C
:100F5000202B04460E46914648D1002948D0002A4D
:100F600046D022230025456480F84230056300F016
:100F700013FEA368A4F82C90B3F5805F8046A4F814
:100F80002E9003D123690BB935461E46E08D80B201
:100F900018B9202384F842300AE03B46424620211B
:100FA0002046FFF721FF28B1202384F84230032098
:100FB000BDE8F88323684EB95B68C3F3080325F8DE
:100FC000023BE38D013B9BB2E385DFE7A268B2F50C
:100FD000805F02D032B9226922B95968C9B206F8D5
:100FE000011BEEE7596801F07F01F8E70220DFE717
:100FF0000120DDE72DE9F341044640B30368DE0735
:1010000010D423689D075BD42368190700F19D80E5
:1010100023685A0700F1BD80A369002B40F02481AA
:1010200000202CE08D4B9A6802F00C02042A07D0B5
:101030009A6802F00C02082A0BD15B68590208D5A5
:10104000864B1B689A03DCD56368002BD9D101203D
:1010500015E06368814DB3F5803F13D12B6843F4ED
:1010600080332B6000F098FD7C4E054633689B036F
:10107000C7D400F091FD401B6428F7D9032002B0CB
:10108000BDE8F081B3F5A02F04D12B6843F4802391
:101090002B60E3E72A6822F480322A602A6822F46F
:1010A00080222A60002BDDD100F076FD06462B68F9
:1010B0009F03A6D500F070FD801B6428F7D9DDE7FB
:1010C000664B9A6812F00C0F07D09A6802F00C0277
:1010D000082A11D15B685D020ED4604A1368990733
:1010E00002D5E368012BB2D11368216923F0F8031C
:1010F00043EAC103136087E7E268594BB2B10122AA
:101100001A6000F049FD554D06462B689B0707D530
:101110002B68226923F0F80343EAC2032B6073E7CC
:1011200000F03AFD801B0228EFD9A7E71A6000F013
:1011300033FD4A4E054633689F077FF565AF00F0E3
:101140002BFD401B0228F6D998E76269444B82B117
:101150000122C3F8802E00F01FFD404E0546736F3C
:101160009B073FF555AF00F017FD401B0228F6D94D
:1011700084E7C3F8802E00F00FFD384E0546736FEC
:101180009F077FF545AF00F007FD401B0228F6D909
:1011900074E7324B1A6C12F0805228D101921A6C0B
:1011A00042F080521A641B6C03F080530193019B40
:1011B00001272C4D2B68D8051BD5A368274D012B83
:1011C00027D12B6F43F001032B6700F0E5FC234E82
:1011D000054641F28838336F9A0739D5002F3FF41E
:1011E0001BAF1E4A136C23F08053136414E70027CF
:1011F000DFE72B6843F480732B6000F0CDFC0646DC
:101200002B68D905D9D400F0C7FC801B0228F7D978
:1012100034E7052B04D12B6F43F004032B67D0E791
:101220002A6F22F001022A672A6F22F004022A673D
:10123000002BCAD100F0B0FC41F2883806462B6F73
:101240009B07CBD500F0A8FC801B4045F7D915E7DC
:1012500000F0A2FC401B4045BDD90FE7003802401A
:101260000000474200700040374DAA6802F00C02AF
:10127000082A3ED0022B354B4FF000021A662BD1C4
:1012800000F08AFC06462B6899011FD4D4E9073286
:101290001343626A43EA8213E26A43EA0263A26A80
:1012A0005208013A43EA02436B60284B264D012263
:1012B0001A6600F071FC04462B689A013FF5B0AE47
:1012C00000F06AFC001B0228F6D9D7E600F064FCA7
:1012D000801B0228D7D9D1E600F05EFC04462B68BB
:1012E0009B017FF59DAE00F057FC001B0228F6D94C
:1012F000C4E6012B3FF4ABAE6B68E26903F48001F6
:1013000091427FF4A4AE216A03F03F028A427FF447
:101310009EAE616A47F6C0721A40B2EB811F7FF43D
:1013200096AEA26A520803F44031013AB1EB024F83
:101330007FF48DAEE26A03F07063B3EB026F14BF0B
:10134000012000209BE600BF003802400000474219
:10135000134908B58B6803F00C03042B1CD0082B31
:101360001CD14A684B68496813F4800314BF0D48C8
:101370000D48C1F3881118BF002302F03F02A1FB02
:101380000001FEF715FF064B5B68C3F30143013311
:101390005B00B0FBF3F008BD0248FCE70248FAE747
:1013A0000038024040787D010024F4002DE9F0412E
:1013B0000D46044610B90120BDE8F081434B1A6880
:1013C00002F00F028A4228D321688F072DD4C80764
:1013D00040D43E4B1A6802F00F02AA4265D8226838
:1013E00051076BD4130707D5394A2169936823F451
:1013F000604343EAC1039360FFF7AAFF344B354AC9
:101400009B68C3F30313D35CD840334B1860334B52
:10141000186800F077FB0020CEE7CAB21A701B688C
:1014200003F00F038B42C6D1CEE7294B11F0040F16
:101430001EBF9A6842F4E0529A600E0742BF9A6853
:1014400042F460429A609A68A06822F0F002024377
:101450009A60BCE762681E4B012A1CD11B6813F41A
:10146000003FA8D01A4EB36823F003031343B360C0
:1014700000F092FB41F288380746B368626803F0D7
:101480000C03B3EB820FA4D000F086FBC01B4045D9
:10149000F3D9032090E7911E01291B6802D813F0AD
:1014A000007FDEE713F0020FDBE7EAB21A701B6879
:1014B00003F00F03AB427FF47EAF90E70449E0688E
:1014C0008B6823F4E05303438B608BE7003C0240BE
:1014D00000380240C0320008000000200800002050
:1014E000044B054A9B68C3F38223D35C034A10680C
:1014F000D840704700380240B83200080000002091
:10150000044B054A9B68C3F34233D35C034A10681B
:10151000D840704700380240B83200080000002070
:10152000094910B50C6924F440740C610C6944F449
:1015300040740C610C6944F001040C610260BFF35B
:101540006F8F436010BD00BF003C0240074B1A691B
:1015500022F440721A611A6942F400721A611A691F
:1015600042F001021A610160704700BF003C024076
:10157000074B1A6922F440721A611A6942F48072A8
:101580001A611A6942F001021A610180704700BFB6
:10159000003C0240204BDA68D00606D51F49CA69D4
:1015A00042F01002CA611022DA60DA68910606D5AC
:1015B0001A49CA6942F00802CA612022DA60164B51
:1015C000DA68520606D51549CA6942F00402CA61B2
:1015D0004022DA60DA68100606D51049CA6942F07E
:1015E0000202CA618022DA600B4BDA68D10507D5A6
:1015F0000A49CA6942F00102CA614FF48072DA6096
:10160000DA68920706D50549CA6942F02002CA6124
:101610000222DA60704700BF003C0240240500202F
:10162000064B1A69002ABFBF054A5A6002F1883288
:101630005A60BABF1869C00F00207047003C0240D2
:1016400023016745034A136943F0004313610020F7
:10165000704700BF003C0240114B70B500220446A9
:10166000DA6100F099FA0F4D0646EB68DA030CD404
:10167000EB68DB0744BF0123EB60E86810F4F97006
:1016800007D0FFF787FF012003E0611CEDD00CB904
:10169000032070BD00F080FA801BA042E5D9F7E777
:1016A00024050020003C02402DE9F0411F4E9846E1
:1016B000337E012B07460D46144635D001234CF2EC
:1016C00050303376FFF7C8FFB0B9CFB9184B1A695D
:1016D00022F440721A611A691A611A69E4B242F07E
:1016E00001021A612C704CF25030FFF7B5FF104A1E
:1016F000136923F00103136100233376BDE8F08101
:10170000012F04D1A1B22846FFF732FFEBE7022FE9
:1017100004D121462846FFF719FFE4E72246434655
:101720002846FFF7FDFEDEE70220E7E7240500205C
:10173000003C02400C4B1A6922F440721A610329E2
:101740001A690BD142F4004242F004021A611A698C
:1017500042EA002040F48030186170470129F3D03C
:1017600042F40042F2E700BF003C02400F4B1A690E
:1017700022F440721A611A69022994BF09024FF4D7
:1017800040710A431A611A6922F0F8021A611A6953
:101790000B2888BF043042EAC00242F002021A61FC
:1017A0001A6942F480321A61704700BF003C02405F
:1017B000144B1A6891050FD51A6822F400721A604A
:1017C0001A6842F400621A601A6822F400621A6011
:1017D0001A6842F400721A600A4B1A6852050FD553
:1017E0001A6822F480621A601A6842F480521A6001
:1017F0001A6822F480521A601A6842F480621A60F1
:10180000704700BF003C02402DE9F843DFF89C80A0
:1018100098F81830012B05460F4642D001234CF2B0
:10182000503088F81830FFF717FF0446B8B94FF06A
:10183000FF333B602B68012B17D16968287CFFF7C9
:1018400079FF4CF25030FFF707FF174A136923F472
:10185000004323F0040304461361FFF7A9FF0023AC
:1018600088F818302046BDE8F883AE68DFF8389075
:10187000D5E902231344B342EFD9297C3046FFF760
:1018800075FF4CF25030FFF7E7FED9F8103023F027
:10189000FA03C9F8103010B13E600446DDE70136A6
:1018A000E6E70224DEE700BF003C024024050020FA
:1018B0002DE9F74FDFF8BC916C4A00230D68012435
:1018C0009C4004EA0506AC4340F0B7804D6803270E
:1018D00005F003044FEA430807FA08FC671E012FCE
:1018E0006FEA0C0C34D8876807EA0C0ECF6807FA49
:1018F00008F747EA0E078760476827EA060EC5F330
:1019000000179F4047EA0E074760C76807EA0C0EBA
:101910008F6807FA08F747EA0E07022CC76019D14B
:101920004FEAD30A00EB8A0A03F0070BDAF82070BB
:101930004FEA8B0B4FF00F0E0EFA0BFE27EA0E0E3E
:101940000F6907FA0BF747EA0E07CAF8207001E0A3
:10195000032CDAD1076804FA08F407EA0C073C43C1
:1019600015F4403F046068D000240194D9F8444045
:1019700044F48044C9F84440D9F8444023F00307B4
:1019800007F1804704F4804407F59C37019403F085
:10199000030C019CD7F808E04FEA8C0C0F2404FAE2
:1019A0000CF42EEA040E324CA0424DD004F58064B3
:1019B000A0424BD004F58064A04249D004F5806475
:1019C000A04247D004F58064A04245D004F580646D
:1019D000A04243D004F58064A04241D004F5806465
:1019E000A0423FD004F58064A0423DD004F580645D
:1019F000A04214BF0A24092404FA0CF444EA0E0499
:101A0000BC609468F74315F4801F0CBF3C4034431E
:101A10009460D46815F4001F0CBF3C403443D4607C
:101A2000546815F4003F0CBF3C40344354601468C4
:101A3000ED0354BF3C40344314600133102B7FF45A
:101A40003DAF03B0BDE8F08F0024D5E70124D3E714
:101A50000224D1E70324CFE70424CDE70524CBE714
:101A60000624C9E70724C7E70824C5E7003C01406E
:101A7000000002400038024000690840003818BFEA
:101A8000012070470AB1816170470904FBE700003B
:101A900037B500230193184B184D1A6C42F0805251
:101AA0001A641B6C03F080530193019B144B0122B9
:101AB0001A6400F071F804466B68DA030BD5104B1A
:101AC0000E4D01225A6400F067F804466B689B03D0
:101AD0000AD5002006E000F05FF8001BB0F57A7F21
:101AE000EAD9032003B030BD00F056F8001BB0F572
:101AF0007A7FEBD9F5E700BF003802400070004064
:101B000000000E4238B50E4B1A784FF47A73B3FBCF
:101B1000F2F30C4A05461068B0FBF3F000F09AF8B7
:101B2000044658B90F2D09D8024629464FF0FF3018
:101B300000F05EF8044B20461D6038BD0120FCE734
:101B400004000020000000200800002008B50B4B16
:101B50001A6842F400721A601A6842F480621A60CD
:101B60001A6842F480721A60032000F02FF80F20E8
:101B7000FFF7C8FFFEF7C0FC002008BD003C024094
:101B8000034A044B11681B780B441360704700BF75
:101B90004405002004000020014B1868704700BF76
:101BA0004405002038B50446FFF7F6FF631C1CBF50
:101BB000054B1B78054618BFE418FFF7EDFF431BE4
:101BC000A342FAD338BD00BF040000200749CA6809
:101BD00022F4E0620302120403F4E063120C1343E4
:101BE00043F0BF6343F40033CB60704700ED00E087
:101BF000164B30B5DC68C4F30224C4F10703251D7D
:101C0000042B28BF0423062D4FF0FF358CBF033C67
:101C1000002405FA03F321EA0303A54022EA0502A2
:101C2000A340002843EA0203ACBF00F16040084A29
:101C30004FEA0313B8BF00F00F00DBB2AABF00F5F4
:101C40006140135480F8003330BD00BF00ED00E068
:101C500014ED00E00138B0F1807F0BD24FF0E023AB
:101C6000054A5861F02182F823100020072298616C
:101C70001A6170470120704700ED00E02DE9F04740
:101C8000089D0F4604468C46002B48D18A421646D2
:101C900061D9B2FA82F34BB1C3F1200201FA03FC1D
:101CA00020FA02F29E4042EA0C0C9C404FEA164E8B
:101CB000B7B2BCFBFEF1220C0EFB11CC42EA0C4287
:101CC00001FB07F0904209D9B21801F1FF3C80F006
:101CD000EE80904240F2EB8002393244121AA4B2F4
:101CE000B2FBFEF00EFB102244EA024400FB07F7B1
:101CF000A74209D9341900F1FF3280F0DA80A742F7
:101D000040F2D7803444023840EA0140E41B00210D
:101D10001DB1DC400023C5E90043BDE8F0878B42DC
:101D200006D90DB1C5E9000100210846BDE8F087DC
:101D3000B3FA83F1002948D1BB4202D3824200F2B8
:101D40000781841A67EB030201209446002DE4D03A
:101D5000C5E9004CE1E7002A00F09280B2FA82F374
:101D6000002B40F0A8808A1A4FEA164E1FFA86FC14
:101D70000121200CB2FBFEF70EFB172240EA0242C3
:101D80000CFB07F0904207D9B21807F1FF3802D2D6
:101D9000904200F2E2804746121AA4B2B2FBFEF073
:101DA0000EFB102244EA02440CFB00FCA44507D9B8
:101DB000341900F1FF3202D2A44500F2CB80104664
:101DC000A4EB0C0440EA0740A2E7C1F120068B40D7
:101DD00022FA06FC4CEA030C07FA01F420FA06F397
:101DE000F7404FEA1C49234300FA01F81FFA8CFE22
:101DF000B7FBF9F01C0C09FB107744EA074400FB21
:101E00000EF7A74202FA01F20AD91CEB040400F112
:101E1000FF3A80F09B80A74240F2988002386444E9
:101E2000E41B9FB2B4FBF9F309FB134447EA0444F3
:101E300003FB0EFEA64509D91CEB040403F1FF3792
:101E400080F08280A6457FD9023B644443EA00408B
:101E5000A4EB0E04A0FB02E7BC427346B94663D371
:101E600060D05DB1B8EB030264EB090404FA06F636
:101E700022FA01F31E43CC40C5E9006400214CE77F
:101E80006208480842EAC1710B0C43EA00438AB277
:101E900042EA0342B3FBF6F1E407B4463746B646DE
:101EA0001F23B0FBF6F0D21B41EA004161E7614617
:101EB00014E7104628E7C3F1200120FA01F29E4002
:101EC00027FA01F19F403A434FEA164E1FFA86FC6B
:101ED000B1FBFEF70EFB1710110C41EA004107FBA6
:101EE0000CF8884504FA03F43AD9711807F1FF3069
:101EF00001D288451FD8A1EB0801B1FBFEF808FB11
:101F00000CF70EFB181192B242EA0142BA422FD2EC
:101F1000B21808F1FF31C6D2BA42C4D2A8F1020108
:101F20003244C0E7F0459CD2BEEB020367EB0C07DE
:101F30000138B94695E7A6EB08084144B81EB1FB45
:101F4000FEF808FB0CF7DCE73B467FE7504667E707
:101F50000846FBE63444023832E7023F32441BE7CE
:101F6000A1EB08013846B1FBFEF808FB0CF7C8E707
:101F7000414698E7002310B50446C0E90033C0E9A4
:101F80000433836081814366C281836119460822DC
:101F90005C3000F0F9F90D4B63620D4BA3620D4B01
:101FA000E3620D4B23630D4B24629C4206D003F188
:101FB0006802944202D0D0339C4205D104F158000B
:101FC000BDE8104000F058BA10BD00BFDD21000888
:101FD000FF210008372200085D2200084805002084
:101FE000024A0349034800F06BB800BF0C00002010
:101FF000152D00081C00002041680C4B994210B5BB
:10200000044601D000F086FEA168094B994202D037
:10201000204600F07FFEE168064B994204D020463E
:10202000BDE8104000F076BE10BD00BF480500209E
:10203000B0050020180600200C4B0D4A0D4810B5C5
:1020400004211A600022FFF795FF0A4B01221C466B
:10205000092103F16800FFF78DFF04F1D00002228F
:10206000BDE810401221FFF785BF00BF80060020A9
:10207000E11F000848050020014800F0FEB900BF3C
:1020800089060020014800F0F9B900BF8906002048
:1020900010B50446FFF7F0FF236A1BB1BDE81040FE
:1020A000FFF7F0BF044B2362044B1B68002BF5D1F4
:1020B000FFF7C2FFF2E700BFF91F0008800600200B
:1020C0002DE9F8430746884614460026D4E90195D1
:1020D000B9F1010905D52468002CF7D13046BDE8D7
:1020E000F883AB89012B07D9B5F90E30013303D042
:1020F00029463846C04706436835E9E70FB407B5B7
:10210000064904AB086853F8042B8168019300F07A
:10211000D9FA03B05DF804EB04B070471800002052
:10212000036A70B5846805460E460BB9FFF7B0FF29
:10213000636EDB0705D4A389980502D4A06D00F077
:102140009CF9A389190702D52369002B35D12146B3
:10215000284600F0C5F880B34FF0FF35636EDA070C
:1021600005D4A3899B0502D4A06D00F087F9284609
:1021700070BD002B04DAA269934217DB0A2915D03F
:1021800023685A1C22601970A36816F8011F013BCE
:10219000A3600029EDD1002B11DA22460A2128463E
:1021A00000F060F80130D7D00A25D7E7224628464C
:1021B00000F058F80130E7D1CEE7013EE4E72368AC
:1021C0005A1C22600A221A70EEE70000024B0146F8
:1021D0001868FFF7A5BF00BF1800002010B50C4617
:1021E000B1F90E1000F0FAF80028ABBF636DA389B7
:1021F0001B1823F48053ACBF6365A38110BD2DE988
:10220000F0411F468B89DB0505460C46164605D571
:10221000B1F90E100223002200F0CEF8A389B4F920
:102220000E1023F48053A38132463B462846BDE876
:10223000F04100F0E5B810B50C46B1F90E1000F011
:10224000BBF8B4F90C30421C0BBF23F4805343F4A9
:102250008053A381A38118BF606510BDB1F90E1032
:1022600000F09AB8F8B50E461446054618B1036A50
:102270000BB9FFF70DFFA369A360A3891A0701D566
:10228000236943B92146284600F02AF818B14FF0D7
:10229000FF373846F8BD23682269981A6369F6B299
:1022A0008342374605DC2146284600F033FD0028EE
:1022B000EDD1A368013BA36023685A1C22601E7005
:1022C0006269431C9A4204D0A389DB07E1D50A2E38
:1022D000DFD12146284600F01DFD0028D9D0D6E7E1
:1022E00038B5284B054618680C4618B1036A0BB977
:1022F000FFF7CEFEB4F90C301A0721D4D80607D464
:1023000009222A6043F04003A3814FF0FF3030E000
:10231000590712D5616B41B104F14403994202D0CF
:10232000284600F0ADF8002363630022B4F90C30B6
:1023300062602269226023F0240343F00803A38132
:1023400022693AB99A0501D5180603D521462846CF
:1023500000F02CFDB4F90C3013F001020AD0002279
:10236000A26062695242A261226942B913F0800000
:10237000C8D138BD990758BF6269A260F4E7002050
:10238000F7E700BF1800002002440346934200D143
:10239000704703F8011BF9E738B5064D00230446E2
:1023A00008462B60FEF7FEF8431C02D12B6803B1F0
:1023B000236038BD8406002038B5074D0446084622
:1023C000114600222A601A46FEF7F6F8431C02D195
:1023D0002B6803B1236038BD8406002038B5074D53
:1023E00004460846114600222A601A46FEF7BEF847
:1023F000431C02D12B6803B1236038BD8406002042
:1024000038B5074D04460846114600222A601A4690
:10241000FEF7BAF8431C02D12B6803B1236038BD24
:1024200084060020014B1868704700BF1800002088
:1024300070B50D4B0D4D5B1B9C100026A64209D1BB
:1024400000F020FD0A4D0B4B5B1B9C100026A642A2
:1024500005D170BD55F8043B98470136EEE755F8B5
:10246000043B98470136F2E7D8320008D83200081A
:10247000D8320008DC32000870477047704700000F
:1024800038B50546002941D051F8043C0C1F002BFB
:10249000B8BFE41800F0E0F81D4A136833B9636070
:1024A00014602846BDE8384000F0DCB8A34208D9E3
:1024B000206821188B4201BF19685B6809182160E8
:1024C000EDE71A465B680BB1A342FAD911685018C0
:1024D000A0420BD120680144501883421160E0D122
:1024E00018685B68536008441060DAE702D90C236F
:1024F0002B60D6E7206821188B4204BF19685B68FF
:10250000636004BF091821605460CAE738BD00BF8A
:102510009006002070B50F4E0C463168054611B983
:1025200000F0A0FC30602146284600F09BFC431CD4
:1025300003D14FF0FF34204670BDC41C24F00304C7
:10254000A042F8D0211A284600F08CFC0130F2D1CC
:10255000EFE700BF8C0600202DE9F843CD1C25F0E5
:10256000030508350C2D38BF0C25002D064601DB70
:10257000A94204D90C2333600020BDE8F883DFF8BA
:10258000D48000F069F8D8F800301C4644BB2946D6
:102590003046FFF7BFFF431C044658D1D8F800402F
:1025A0002746002F43D1002C4BD0236839463046B4
:1025B00004EB030900F056FC814542D121686D1AF5
:1025C00029463046FFF7A6FF01303AD023682B4456
:1025D0002360D8F800305A6862BBC8F800700FE07A
:1025E0002268521B20D40B2A17D96119A3422560F7
:1025F00018BF5960636808BFC8F8001062514B608B
:10260000304600F02FF804F10B00231D20F00700E6
:10261000C21A1CBF1B1AA350AFE76268A3420CBFCB
:10262000C8F800205A60EBE723466468AEE73C46F2
:102630007F68B6E71A465B68A342FBD1002353606C
:10264000DEE70C233360304600F00CF894E70560B9
:10265000D6E700BF900600200148FFF70EBF00BF7D
:10266000880600200148FFF709BF00BF8806002048
:102670009368013B002B10B4936008DA9469A3427D
:1026800001DB0A2903D15DF8044BFFF7EBBD1368AA
:10269000581C1060197008465DF8044B7047F8B577
:1026A00006460F461446D518AC4201D1002007E07B
:1026B00014F8011B3A463046FFF7DAFF431CF3D10A
:1026C000F8BD00002DE9F04F0D469DB01446984628
:1026D000064618B1036A0BB9FFF7DAFC6B6ED9072F
:1026E00005D4AB899A0502D4A86DFFF7C6FEAB8965
:1026F0001B0701D52B699BB929463046FFF7F0FD32
:1027000070B16B6EDC0704D54FF0FF301DB0BDE833
:10271000F08FAB899805F7D4A86DFFF7AFFEF3E70C
:102720000023099320238DF82930CDF80C80302325
:10273000DFF8AC818DF82A304FF0010923469A4624
:1027400013F8012B0AB1252AF9D1BAEB040B0BD0EF
:102750005B46224629463046FFF7A1FF013000F0D4
:10276000A780099A5A4409929AF80030002B00F089
:102770009F8000234FF0FF32CDE905230AF1010AC3
:10278000049307938DF853301A935446052214F896
:10279000011B5348FDF72CFD049AD8B9D10644BF5C
:1027A00020238DF85330130744BF2B238DF853306B
:1027B0009AF800302A2B15D0079A544600204FF083
:1027C0000A0C214611F8013B303B092B4BD9B0B123
:1027D000079214E0A0EB080309FA03F313430493F0
:1027E000A246D2E7039B191D1B680391002BBBBFB8
:1027F0005B4242F0020207930793B8BF049223782A
:102800002E2B0AD163782A2B32D1039B1A1D1B6809
:10281000039243EAE37302340593DFF8D4A02178EE
:1028200003225046FDF7E4FC38B1049BA0EB0A00FC
:102830004022824013430134049314F8011B2948B9
:102840008DF828100622FDF7D3FC00283FD0264B38
:102850001BBB039B073323F0070308330393099B38
:102860003B4409936AE70CFB02320C460120A8E7BF
:1028700000230134059319464FF00A0C204610F846
:10288000012B303A092A03D9002BC6D00591C4E7A1
:102890000CFB012104460123F0E703AB00932A4619
:1028A000124B04A93046AFF300800746781CD6D1FE
:1028B0006B6ED90705D4AB899A0502D4A86DFFF7D2
:1028C000DDFDAB895B063FF51FAF09981EE703AB43
:1028D00000932A46054B04A9304600F079F8E4E756
:1028E000853200088F320008000000009F26000893
:1028F0008B3200082DE9F047164698468A680B6926
:10290000DDF820909342B8BF1346336091F843201E
:1029100007460C460AB1013333602368990642BF6B
:10292000336802333360256815F0060506D104F1DB
:10293000190AE36832689B1AAB4226DC94F84330EC
:102940002268003B18BF012392062BD404F14302F6
:1029500041463846C84701301ED02368226903F03B
:102960000603042B02BFE5683368ED1AA3680CBFA9
:1029700025EAE57500259342C4BF9B1AED18002691
:102980001A34B5421AD1002008E0012352464146CC
:102990003846C847013003D14FF0FF30BDE8F0871B
:1029A0000135C6E7E1185A1C302081F84300224463
:1029B00094F8451082F843100233C7E701232246FA
:1029C00041463846C8470130E6D00136D9E7000015
:1029D0002DE9FF470F7E0C9E782F914680460C46CE
:1029E0009A4601F1430207D8622F0AD8002F00F05F
:1029F000D280582F00F0B78004F1420684F842706C
:102A00003AE0A7F16303152BF6D801A151F823F0A2
:102A1000692A00087D2A0008F9290008F929000818
:102A2000F9290008F92900087D2A0008F929000879
:102A3000F9290008F9290008F92900087D2B000868
:102A4000A72A0008332B0008F9290008F9290008F3
:102A50009F2B0008F9290008A72A0008F929000877
:102A6000F92900083B2B000833681A1D1B683260E7
:102A700004F1420684F8423001239DE03368206867
:102A8000191D3160060601D51D6803E04506FBD51A
:102A9000B3F90050002D03DA2D236D4284F8433042
:102AA00059480A2310E021683368080653F8045B8C
:102AB00002D4490648BFADB26F2F5348336059D195
:102AC0000823002184F843106668A660002E05DB09
:102AD00021682E4321F0040121604DD01646B5FB3C
:102AE000F3F103FB1157C75D06F8017D2F46BB428A
:102AF0000D46F4D9082B0BD12368DF0708D52369CD
:102B000061689942DEBF302306F8013C06F1FF36CA
:102B1000921B2261CDF800A04B4603AA21464046F5
:102B2000FFF7E8FE01304CD14FF0FF3004B0BDE8B4
:102B3000F087236843F0200323603448782784F823
:102B40004570236831681F0651F8045B02D45F06A4
:102B500048BFADB23160D90744BF43F020032360C2
:102B60001DB11023ADE72848E9E7236823F02003CF
:102B70002360F6E70A23A4E71646BBE73368256817
:102B80006169181D30602E061B6801D5196002E0CE
:102B90006806FBD51980002323611646BAE733681F
:102BA0001A1D32601E68626800213046FDF720FB66
:102BB00008B1801B606063682361002384F84330A0
:102BC000A8E72369324649464046D0470130ABD09A
:102BD00023689B0713D4E068039B9842B8BF18464C
:102BE000A4E70123324649464046D04701309BD0F6
:102BF0000135E36803995B1AAB42F2DCEBE7002591
:102C000004F11906F5E700BF96320008A732000864
:102C1000B1F90C202DE9F041160705460C4651D4B8
:102C20004B68002B02DC0B6C002B49DDE66A002EA2
:102C300046D0002312F480522F682B6031D0626D91
:102C4000A389590705D56368D21A636B0BB1236C4E
:102C5000D21A0023E66A216A2846B047421CB4F91A
:102C60000C3006D129681D2946D8294ACA40D60702
:102C700042D500226260D9042269226004D5421C38
:102C800001D12B6803B96065616B2F60C1B104F19C
:102C90004403994202D02846FFF7F2FB0023636306
:102CA0000EE0216A01232846B0470246501CC7D1D6
:102CB0002B68002BC4D01D2B01D0162B1AD12F60EE
:102CC00000201EE00F69002FFAD093070E6808BF9E
:102CD0004B690F6018BF0023A6EB07088B60B8F1A3
:102CE000000FEDDD216AA66A43463A462846B04702
:102CF000002808DCB4F90C3043F04003A3814FF006
:102D0000FF30BDE8F0810744A8EB0008E7E700BF0B
:102D10000100402038B50B6905460C4613B9002563
:102D2000284638BD18B1036A0BB9FFF7B1F9B4F9F9
:102D30000C30002BF3D0626ED00704D4990502D476
:102D4000A06DFFF79AFB28462146FFF761FF636EEF
:102D5000DA070546E4D4A3899B05E1D4A06DFFF70B
:102D60008DFBDDE770B50C46B1F90E10002996B069
:102D700015461E460ADAA18911F0800113D14FF4DD
:102D80008062002031602A6016B070BD6A4600F093
:102D900047F80028EFDB019901F47041A1F50053D9
:102DA00059425941EBE700214022EAE78B8973B58C
:102DB0009E0705460C4607D504F1470323602361AF
:102DC0000123636102B070BD01AB6A46FFF7CAFF21
:102DD000009E28463146FFF7BFFBB4F90C3038B9E6
:102DE0009A05EFD423F0030343F00203A381E3E742
:102DF00043F08003A381019B2060C4E90406002BFB
:102E0000E0D0B4F90E10284600F01CF80028D9D004
:102E1000A38923F0030343F00103A381D2E7000059
:102E200038B5074D00230446084611462B60FDF7D0
:102E3000BCFB431C02D12B6803B1236038BD00BF2B
:102E40008406002038B5064D0023044608462B6052
:102E5000FDF7B0FB431C02D12B6803B1236038BDE2
:102E60008406002038B5064D0023044608462B6032
:102E7000FDF75EFB431C02D12B6803B1236038BD14
:102E800084060020F8B500BFF8BC08BC9E46704719
:0C2E9000F8B500BFF8BC08BC9E467047B7
:102E9C0057616974696E6720666F7220746865206B
:102EAC0066696C6520746F2062652073656E742092
:102EBC002E2E2E20287072657373202761272074A4
:102ECC006F2061626F7274290A0D000A0A0D20507E
:102EDC00726F6772616D6D696E6720436F6D706C98
:102EEC0065746564205375636365737366756C6C88
:102EFC0079210A0D2D2D2D2D2D2D2D2D2D2D2D2DF9
:102F0C002D2D2D2D2D2D2D2D2D2D2D2D2D2D2D2DE5
:102F1C002D2D2D2D0D0A204E616D653A20000A0DC8
:102F2C002053697A653A20002042797465730D0A42
:102F3C00002D2D2D2D2D2D2D2D2D2D2D2D2D2D2DE2
:102F4C002D2D2D2D0A000A0A0D54686520696D611E
:102F5C0067652073697A652069732068696768659D
:102F6C0072207468616E2074686520616C6C6F7778
:102F7C006564207370616365206D656D6F72792176
:102F8C000A0D000A0A0D56657269666963617469F7
:102F9C006F6E206661696C6564210A0D000D0A0A6A
:102FAC0041626F7274656420627920757365722E4C
:102FBC000A0D000A0D4661696C656420746F2072FD
:102FCC00656365697665207468652066696C652142
:102FDC000A0D000D0A3D3D3D3D3D3D3D3D3D3D3D18
:102FEC003D3D3D3D3D3D3D3D3D3D3D3D3D3D3D3D05
:102FFC003D3D3D3D3D3D3D3D3D3D3D3D3D3D3D3DF5
:10300C003D3D3D3D3D3D3D3D3D3D3D3D3D3D3D3DE4
:10301C003D3D3D3D3D3D3D3D3D3D3D000D0A3D2091
:10302C002020202020202020202020202020202094
:10303C002020202020202020204744333246347882
:10304C007820426F6F746C6F616465722020202051
:10305C002020202020202020202020202020202064
:10306C0020203D000D0A3D20202020202020202063
:10307C002020202020202020202020202020202044
:10308C002020202020202020202020202020202034
:10309C002020202020202020202020202020202024
:1030AC0020202020202020202020203D000D0A3D23
:1030BC002020202020202020202020202020202004
:1030CC0020202020204669726D7761726520557032
:1030DC006772616465204D6F64652020202020207C
:1030EC0020202020202020202020202020202020D4
:1030FC002020203D00526561647920666F72206645
:10310C0069726D7761726520646F776E6C6F616444
:10311C002076696120594D4F44454D2070726F7473
:10312C006F636F6C2E2E2E0D0A00506C65617365EB
:10313C002073746172742073656E64696E67207499
:10314C006865206669726D776172652066696C6569
:10315C002E0D0A0D0A000D0A53797374656D2077D4
:10316C00696C6C207265737461727420696E2033A3
:10317C00207365636F6E64732E2E2E0D0A00466CE1
:10318C0061736820756E6C6F636B206661696C652A
:10319C00643A2025640D0A00466C617368206572E0
:1031AC00617365206661696C65643A2025642C2026
:1031BC00736563746F72206572726F723A20257535
:1031CC000D0A00466C61736820736563746F72201E
:1031DC00256C752065726173656420737563636516
:1031EC00737366756C6C790D0A00436C656172695A
:1031FC006E6720626F6F746C6F6164657220666CB1
:10320C0061672E2E2E0D004661696C656420746F0B
:10321C0020636C65617220626F6F746C6F616465A2
:10322C007220666C61670D00426F6F746C6F616425
:10323C00657220666C616720636C656172656420E1
:10324C007375636365737366756C6C790D00426F8F
:10325C006F746C6F61646572207570677261646500
:10326C0020666C61672064657465637465642069AD
:10327C006E20466C6173680D00232D302B20006886
:10328C006C4C006566674546470030313233343547
:10329C0036373839414243444546003031323334B5
:1032AC0035363738396162636465660000000000AA
:1032BC0001020304000000000000000001020304EE
:0432CC0006070809E0
:0832D00020CFFF7F0100000088
:0432D800B502000833
:0432DC009102000853
:1032E0000024F400010000001000000000000000B5
:1032F00003000000480500201C0000200000000022
:1033000048050020B005002018060020000000003D
:1033100000000000000000000000000000000000AD
:10332000000000000000000000000000000000009D
:10333000000000000000000000000000000000008D
:08334000000000000000000085
:04000005080005BD2D
:00000001FF
